:100000000C948F020C9400000C9400000C940000DF
:100010000C9400000C9400000C9400000C94000060
:100020000C9400000C9400000C9400000C94000050
:100030000C9400000C9400000C9400000C94000040
:100040000C9400000C9400000C9400000C94000030
:040050000C9400000C
:10051E00BFE5BDBFB4E0BEBF0E941403CDB7DEB7CA
:10052E002297CDBFDEBF21962F923F924F925F92C0
:10053E00D8DE85DEBCE02B2E20DEBBE64B2EB0E0F7
:10054E005B2EB1E03B2EB1E02B2E84DE2224E3DDC8
:10055E000883198348EE53E0E6DD8B014AE050E054
:10056E00E2DD8C0120E630E0F801E20FF31F00819E
:10057E00402EB1E03B2EB2E02B2E96DD44E650E04D
:10058E0008811981D0DD8B014AE050E0CCDD8C0171
:10059E0020E630E0F801E20FF31F0081402EB2E0BA
:1005AE003B2EB2E02B2E80DD4AE050E0088119810F
:1005BE00BADD8B014AE050E0B6DD8C0120E630E07A
:1005CE00F801E20FF31F0081402EB3E03B2EB2E0A4
:1005DE002B2E6ADD4AE050E008811981A4DD8C01E2
:1005EE0020E630E0F801E20FF31F0081402EB4E068
:1005FE003B2EB2E02B2E58DDA9CF5F904F903F904F
:04060E002F90FFCF5B
:1002F000B0913500BD7FB0933500B0913500BE7F21
:10030000B0933500B0913500BF7DB0933500B0910A
:100310003500BF7EB0933500B0913500B77FB09304
:100320003500B0913500BB7FB0933500B0913400FB
:10033000B260B0933400B0913400B160B093340037
:10034000B0913400B460B0933400B0913400B86020
:10035000B0933400B0913400B061B0933400B091E8
:100360003400B062B09334009FDE9EDE9DDEB0911B
:100370003500B860B0933500B0913500B460B093EB
:100380003500B0913500B260B093350088DEB09191
:100390003500BD7FB093350087DEB0913500B26087
:1003A000B09335007CDEB0913500BD7FB093350051
:1003B0007BDEB0913500B260B093350070DEB09155
:1003C0003500BD7FB09335006FDEB0913500BB7F47
:1003D000B0933500B0913500B260B09335005FDE68
:1003E000B0913500BD7FB09335005EDEB091350031
:1003F000B260B093350053DEB0913500BD7FB0934D
:100400003500B0913500B77FB0933500B09135001D
:10041000B062B0933500B0913500B260B093350052
:100420003EDEB0913500BD7FB09335003DDEB0912A
:100430003500BF7DB0933500B0913500B460B09306
:100440003500B0913500B260B093350028DEB09130
:100450003500BD7FB0933500B0913500BB7FB093C0
:100460003500B0913500B260B093350018DEB09120
:100470003500BD7FB093350017DEB0913500B26016
:10048000B09335000CDEB0913500BD7FB0933500E0
:10049000B0913500B460B0933500B0913500B260D2
:1004A000B0933500FCDDB0913500BD7FB0933500D1
:1004B000FBDDB0913500BB7FB0933500B0913500C6
:1004C000B260B0933500EBDDB0913500BD7FB093E5
:1004D0003500B0913500B062B0933500B091350071
:1004E000B061B0933500B0913500B860B09335007D
:1004F000B0913500B460B0933500B0913500B26072
:10050000B0933500CCDDB0913500BD7FB0933500A0
:0E051000CBDDB0917500B160B0937500089519
:0E00A80018E40DE60A95F1F71A95E1F70895B0
:0A009E0003E00A95F1F70000089551
:10024C00BCE3B0937600B0E0B0937700B7E8B6B9F2
:06025C00B0E0B7B90895FF
:1001880027FAB0913500B5F9B093350026FAB09149
:100198003500B4F9B093350025FAB0913500B3F9BC
:1001A800B093350024FAB0913500B2F9B093350018
:1001B800B091750000903500E894B0FF689400F89D
:1001C80000923500B0913500B260B093350063DF1E
:1001D800B0913500BD7FB093350023FAB09135005A
:1001E800B5F9B093350022FAB0913500B4F9B0935F
:1001F800350021FAB0913500B3F9B093350020FAF3
:10020800B0913500B2F9B0933500B0917500009007
:100218003500E894B0FF689400F800923500B0917A
:100228003500B260B093350036DFB0913500BD7F40
:10023800B0933500B0917500B0FF02C031DF01C046
:0402480005DF089531
:0C00540006EA0A95F1F70000000008958C
:100262002F920FC0B0E82B2E19C0B0EC2B2E16C067
:10027200B4E92B2E13C0B4ED2B2E10C0B0E82B2EF8
:100282000DC0B1E02B1671F3B2E02B1671F3B3E09F
:100292002B1671F3B4E02B1671F3F0CF032D01503E
:1002A200020D202E202E6FDFB0917500BE7FB0931D
:1002B200750010E0E12FF0E0E40DF51D0081002350
:1002C20079F0E12FF0E0E40DF51D00811F932F92EC
:1002D200202EC5DE2F901F91012F0F5F102FEACF26
:0E02E200B0917500B160B09375002F90089533
:10006000B0917500BE7FB09375008ED0B0917500D1
:08007000B160B0937500089522
:0601240093D0A8DF08954E
:1000780007B1007E022907B9B6B1B064B6B9B6B106
:10008800B6FF01C0FCCF24B130E005B1102F002726
:06009800022B132B08955A
:1000B6002F920FC0B0E82B2E19C0B0EC2B2E16C015
:1000C600B4E92B2E13C0B4ED2B2E10C0B0E82B2EA6
:1000D6000DC0B1E02B1671F3B2E02B1671F3B3E04D
:1000E6002B1671F3B4E02B1671F3F0CF032D0150EC
:1000F600020D202EB0917500B160B0937500202ED0
:1001060040D0B0917500BE7FB0937500242C39D0D5
:0E011600B0917500B160B09375002F90089500
:0A012A0005900D920197E1F708958A
:10013400C801BA0197FB092E07260AD077FD04D01F
:100144000CD006D000201AF4709561957F4F089565
:10015400F6F7909581959F4F0895AA1BBB1B51E11B
:1001640007C0AA1FBB1FA617B70710F0A61BB70B23
:10017400881F991F5A95A9F780959095BC01CD01C8
:04018400089508953D
:10062800A0E6B0E0E2E1F6E085E190E00E94950006
:02063800089523
:0B0612003031323334353637383900D0
:0A061D004144432056616C756500EE
:00000001FF
